:020000040800F2
:10000000F82C002045450108E3E30008E5E300087B
:10001000F1E30008F3E30008F5E300080000000046
:10002000000000000000000000000000F7E30008EE
:10003000F9E3000800000000FBE30008FDE300080E
:100040008545010889450108FFE300088D45010841
:10005000914501089545010867E400086BE4000834
:100060006FE4000873E4000877E400081DE400086A
:1000700023E400089945010829E4000811E4000878
:1000800017E400089D450108A1450108A5450108A0
:10009000A9450108AD4501087BE40008B145010808
:1000A000B5450108B9450108BD450108C14501082C
:1000B000C5450108C9450108CD450108D1450108DC
:1000C0002FE4000835E400083BE40008D5450108AA
:1000D00041E4000847E400084DE40008D945010860
:1000E000DD45010881E4000887E40008E1450108D6
:1000F000E5450108E9450108ED450108F14501081C
:10010000F5450108F94501088DE40008FD450108A1
:10011000014601080546010805E400080BE4000853
:10012000094601080D460108114601081546010857
:10013000194601081D4601083EB5DFF8F04C02F0F3
:1001400005FC6061684602F0B9FCDFF8E40CDDE90B
:10015000002300F66821C1E90023256845F0100559
:100160002560D0F8780A00281EBF00690028804763
:100170000DF10C0DBDE8304000A328E04D414320B7
:100180007478446F6E650D0A000000002DE9F0419F
:1001900004460D4616469846DFF8907C02F0D6FBE2
:1001A0007860BC60BD81FE8187F810803868DFF818
:1001B000801C40F008003860D1F8780A00281EBF83
:1001C000006900288047BDE8F04100BF02A301227A
:1001D0000021022002F013BD4D4143207278446F8C
:1001E0006E650D0A0000000080B5DFF8400C016864
:1001F00041F004010160DFF8380CD0F8780A0028DB
:100200001EBF006900288047BDE8005000A3DEE75C
:100210004D414320747854696D654F75740D0A0023
:10022000DFF8080C016841F002010160DFF8000C02
:10023000D0F8780A18B10069002818BF0047704745
:1002400080B5DFF8E80B016841F001010160DFF8DB
:10025000E00BD0F8780A00281EBF0069002880470C
:10026000BDE8005000A3B2E74D41432072785469C5
:100270006D654F75740D0A00DFF8B40B90F8FC1033
:10028000022918BF062180F8B01B704710B5DFF8AF
:10029000A04BD4F8700A94F8441B40F08000C4F8D6
:1002A000700A012904BF002000F09DFD94F8B10BF5
:1002B00040F0220084F8B10BBDE81040DCE7F8B54F
:1002C000DFF86C4B054694F8FC00002702280E4628
:1002D00001D000F030FD02F0BEFD012806D1022061
:1002E00002F0AFFD002002F0B1FD012794F8FC0000
:1002F000012815D102F0B1FD012806D1002002F03D
:10030000A1FD002002F0A3FD012702F0A8FD0128B5
:1003100006D1002002F097FD002002F099FD28E0B0
:100320003FBB04F53B6794F8441B387890B901292A
:1003300008BF84F8695B284602F03FFEE06A02F0DD
:100340000DFBD4F8E41A884213D304F6C82002F057
:100350007DFA0AE0012908BF84F8696B304602F093
:100360002CFE94F8FC00022803D0787840F020009E
:100370007870BDE8F1407FE7DFF8B41AD1F8700A71
:10038000002804BF91F8B20B012801D1002070476A
:10039000012070472DE9F84FA0B0EFF3108072B63E
:1003A000DFF888BADBF8001003910022CBF80020B8
:1003B00080F310880398DFF878AA00280AF53465DE
:1003C0000AF527640AF6A4360AF6643700F0F682C6
:1003D000C0F30010002864D09AF8FC00022801D075
:1003E00000F0A9FC0AF52B68216F404602F059FA8B
:1003F000404602F0F0F9616F0AF6C82002F051FAA7
:100400000AF6C82002F0E7F99AF8FC0002281CBF9F
:100410002879012813D116210AF13C008DF8041027
:1004200001A9007902F02AFE0146606F0AF6283819
:100430000918404602F035FA404602F0CCF9DBF8E4
:1004400014106A79CAF82C108DF81020059109A8AB
:1004500002F04EFB0AF58272D2E90001DDE909895A
:100460000091034641464A4609A802F0E6FADDE952
:100470000901CDE907010122A96806918DF8112033
:100480000AF1FC01087D10B900218DF811100AF164
:100490003C0004A9007902F01BFE287908B900216C
:1004A00079710398C0F3C00000283ED09BF910106A
:1004B000BBF90E00DBF80880BBF80C908DF8041037
:1004C000002202920AF18001ADF80000CA6CBDF86A
:1004D0000000069200218DF8061039723081012249
:1004E0009DF80410307B8DF80520B172F072002168
:1004F000DFF8582AE981697469612983A976E9617D
:10050000297329623970D06A80470AF6C82002F040
:100510009DF94946404602F09CFC012806D1BDF8F1
:1005200000009DF80410F88731701FE29AF8FC0073
:10053000012817D102F091FC012807D1002002F018
:1005400081FC002002F083FC04200AE002F087FC1A
:10055000012807D1002002F076FC002002F078FC90
:100560000520F07298F80010DFF8E4B98DF800105B
:100570004809012800F0748103281ED005281AD0EC
:10058000072840F0DC81DFF8CCB9A9F1010292B272
:1005900008F10101584603F0CDF8002169730320EA
:1005A0002873A9F10100717BC5F814B041F0020174
:1005B00028767173C7E1012028730D229BF815007E
:1005C00095F91010DFF890B98DF812008DF8111020
:1005D0008DF810209AF88000012804BF0E218DF8B4
:1005E00010109BF8040004A902F048FDA9F10D03C6
:1005F00000211BB29942B8BF194600B28842A8BF79
:10060000B9F10C0FC0F29681FF200AF668128DF83E
:1006100044001092CDF81C808DF8209007A803F0BC
:1006200021F9002840D1099A9DF828102A6211F07A
:100630000F0F1EBF9DF83C0000284FF0000810D19E
:100640009DF8440010B94FF001080AE011F00F0FB7
:100650002AD19DF83C0000280CBF4FF002084FF053
:1006600003080AF1D40E0020DEF800300290934215
:1006700002BF0AF1D2021078012817D101208DF8AB
:1006800006005278DEF81C008DF805200268029200
:1006900006939AF8FC20022A04BF0320F072B8F1F6
:1006A000030F08BF11F0600F40F0448115208DF852
:1006B000100004A99BF8040002F0E0FC0AF5867122
:1006C0000A689DF80510139211B1012903D03CE08E
:1006D0004FF004090FE09DF84E10012909D1B8F13F
:1006E000000F16BFB8F1030F4FF002094FF00109D8
:1006F00001E04FF00309BDF82A2081B202AB484661
:1007000003F02BFA9DF8001049098DF807100DF140
:10071000440BF8B1072814D10AF1FC020821907C9F
:10072000002804BF9DF80700052802BFDAF834004E
:10073000DBF80420904209D10AF1390301205870F6
:1007400004E0082808BF0A2100D001210298E861CE
:100750006973F1E007A80090029B06999DF80500D7
:100760004A4603F051FB20B1022814BF0C200B2095
:10077000E1E068739DF828009DF80610A973C0F3A6
:100780000010687400219DF82800696129764009ED
:100790000299E96100F00100A87638720021F07A30
:1007A0007971002814BF0128CAF828109DF8061096
:1007B00009B1022114E09DF80720DFF8841C052A06
:1007C0000BD101230AF1FC024B70917C19B9DBF8C3
:1007D0000410CAF83410012102E000224A700021FE
:1007E0002973030039799DF8282018BF012806D104
:1007F000012906BFC2F34010002803F054FC9DF805
:100800002820B8F1030F02F00F021FD8DFE808F02C
:10081000120D0214F07A9DF904309DF844200090E6
:100820000021109800F09AFB01E000F07DFA9DF89D
:100830003C0010E000F078FA10999DF83C006961E6
:1008400001229DF8441029766A7604E0012068733D
:10085000FFF71CFDE87BE873707B40F0020067E067
:10086000B9F1100F66DD0AF1FC02CDF858808DF861
:100870005C90107D00285DD103F09FFE014616AA12
:10088000FF2003F0F6F9002846D19DF861009DF89D
:10089000621040EA01209DF863100AF1800240EAEC
:1008A000014090640AF180011998C8649DF86800BD
:1008B000C0F302108BF801009DF8680000F00F00F3
:1008C0008BF808008BF810009DF8690000B9012032
:1008D0004FF47A71DFF88026DFF8688B4843506167
:1008E0000DF16A0100F57A7090611491002088F88A
:1008F0001200A9F111038DF8543014A9107902F0F7
:100900005BFC022088F81400012002F06AFB012839
:100910000BD10121002006E0012002F062FB01283A
:1009200003D10121072002F02AFB707B40F0080070
:10093000707308E001206873FFF7A8FC16E001203F
:100940006873FFF7A3FC2879012802D1387A0128BF
:1009500002E09AF8FC00022804BF002000F043FAED
:10096000707B40F020007073FFF786FC0398C0F3A3
:100970008000A0B19AF8FC00022801D000F0DBF959
:10098000FFF77AFC0220787102F017FB2879012822
:1009900004BF0121E970707B40F020007073039860
:1009A000C0F3400018B106210520FFF788FC03982A
:1009B000C10703D504210320FFF781FC02F066FA8A
:1009C000707BC0F34010002800F041810020B0731C
:1009D000DFF884952068DFF86CBA010644BF20F088
:1009E00082002060707B10F0050F0ED00C2002F00A
:1009F000F8FA012802BF707B00F00500042804D13A
:100A0000206820F0020020607EE0707BC0F3800050
:100A1000B8B1012002F0E5FA012804D102F0BFFAD2
:100A200058B9287009E0052002F0DBFA012804D04B
:100A3000062002F0D6FA012803D1206820F0020037
:100A40002060717BC8075FD538790022002818BF65
:100A500003280AF6982800F04B81012835D1E87860
:100A6000012851D195F801C0AB78634505D2C1F397
:100A7000400018B1387A012800D101229BF81200F9
:100A8000002840F04681002A40F01A8163451CD2BC
:100A90005B1CAB70DBB203EBD3704008A3EB4003ED
:100AA000012B12D122208DF800000AF16001087D8F
:100AB0008DF8020069469AF839008DF8010099F81E
:100AC000040002F0DBFA8AF839000021707BE9703B
:100AD00000F0DF007073404601F0B8FE206820F09F
:100AE00020002060012000F0E4FC002818BF0B2843
:100AF0000AD09AF83900A978B8717972092078710A
:100B000002F05BFA00F029FF9AF8B15B206848BB5D
:100B1000E90744BF05F0FE007073707BC0F38000EE
:100B200018B1707B00F0FB0070730120E907B0730F
:100B300004D561680A680AF668309047C5F38000FA
:100B400050B10AF67C3002F055FA02F07DFA18B185
:100B5000707B40F00400707302F087F9707B00F046
:100B6000DF007073206868B900218DF800106846B6
:100B700003F0E4FA9DF80000012803D1707B40F0F7
:100B8000100070730025206800285ED12421504693
:100B900002F0EFFDDAF8241088421CBFCAF82400E6
:100BA000012514210AF1280002F0E3FDD9F8001014
:100BB00088421CBFC9F8000045F00205D4210AF1A3
:100BC000400002F0D6FDDBF8181088421CBFCBF8BD
:100BD000180045F00405BC210AF58C7002F0C9FD2F
:100BE000DAF8D41188421CBFCAF8D40145F00805D0
:100BF000A0210AF5EC7002F0BCFDDAF87812884208
:100C00001CBFCAF8780245F010054FF493610AF54D
:100C10001F7002F0AEFD0AF21477396888421CBFDB
:100C2000386045F0200514210AF5E36002F0A1FDCB
:100C3000B96988421CBFB86145F04005A06800282A
:100C40001FBFC1680029284688470120B0730AF6F3
:100C5000AC35707BC0F3C00048B1707B00F0F7008A
:100C6000707329466268D3680AF539609847707BCB
:100C7000C0F3001070B100228DF8012007218DF81B
:100C8000001029466268D36868469847707B00F078
:100C9000EF007073707BC0F3400048B1707B00F0D0
:100CA000FD0070732946626853680AF64C30984715
:100CB000307B022808BF00F02BFE21B0BDE8F08F8A
:100CC000387A08B17B7227E002208DF808000AF517
:100CD000EC7100910AF51F720192694699F80400BF
:100CE00002F01CFA002028713872A878787213E09C
:100CF0002A789AF8600082420ED2C1F340000028A0
:100D000008D09BF8000038B1F07A00287FF4DDAEFF
:100D100002E0002A3FF4D9AE404601F097FD20687A
:100D200020F020002060EDE6F07A9DF9043000907C
:100D300000210BA812E18549C86A004710B501F0EF
:100D40001BFDD4F8700A20F02000C4F8700A0120BE
:100D500000F0AFFB002818BF0B2810D004F6693054
:100D600094F8391094F8422B4170027109210170F6
:100D7000092002F022F9BDE8104000F0EEBD10BDE0
:100D800010B52B4890F8452B00F6E8210A7000F1C9
:100D9000610200F52B6092F90030147DD27FCB7098
:100DA0000C7400234A744B8219E0214A92F8B00B6C
:100DB000002800D1704710B502F6FC2192F8450BCF
:100DC000087002F164000368447C007F4B60487443
:100DD0000C7400238B740120C87402F6C820BDE88F
:100DE000104000F07ABD10B5DFF8B04B04F62830A3
:100DF00001F02CFD04F643304178012904BF0122A3
:100E0000027094F8FC00022805D194F8B10B40F070
:100E1000200084F8B10BD4F8780A00281CBF0069C0
:100E2000002802D0BDE81040004710BD1424002067
:100E300094020020F8B5DFF8645B444C95F8FC1090
:100E40000746032019B1022954D04BD3F2BD3A0012
:100E500005F16C0606D105F16401D1E90023C6E96C
:100E60000023F2BD012F08D1012001F0FFFF010096
:100E700047D1012185F8FC10F2BD022F41D102209B
:100E800085F8FC0005F53167384605F6FC2114228B
:100E900003F034FC0220F87400202C214143294443
:100EA00091F8D220012A02D0401CF6DD12E001F1B7
:100EB000E80005F6443201683160007930717960EC
:100EC0005078717A387039740321307D7874F974F0
:100ED0000120B874002185F8441BE06A804700F0C7
:100EE00017FD0DE0384601F0C1FF010009D185F87A
:100EF000FC70F2BD2FB9002085F8FC00E16A88473C
:100F00000020F2BD1CB5DFF8582D8DF8010002F16C
:100F100074031C78197B8DF802400D248DF8004075
:100F2000012904BF0E208DF8000092F840006946A8
:100F300002F0A4F8C0B216BDDFF8240D90F8B11B82
:100F400041F0100180F8B11B70470000703E0108AD
:100F5000F4020020FC0B0020D00200202DE9FE4FFF
:100F600004468EB00F460DF10A0000218DF80810DE
:100F70008DF80F100180DFF824AA0AF684310AF1F7
:100F8000FE0009910AF160080AF1380B08900FE0A1
:100F9000A05D089A00F00F000121814091802F464A
:100FA000089B587000220DF10A01042003F006F896
:100FB0009DF83C10F8B2884280F03F825FFA87F9D2
:100FC00014F8090003F0CEF89DF83C104844814223
:100FD000C0F2338214F809007F1C7D1C801E11288A
:100FE000FEB2E9D8DFE810F01300240012008300FD
:100FF000B800CF00FC00100153012902290267014B
:1010000029022902CC01DD01F7010E02C0E704200C
:1010100001F0E7FF0128CBD1042100F047FA09993C
:10102000A05D0870E9B20998625C42706F1CBFE76E
:101030009DF80F00002100288DF80E10ADF80C105F
:101040008DF80910B4D101218DF80F10A2199DF867
:101050003C100898C91B491C531E8DF818100593A5
:101060000DF10D0301789BF8002098F814008DF81D
:101070001A108DF81C208DF819000AF586729BF85D
:1010800001108DF81B100DF1090098F800108DF873
:101090001D10019011689BF80800049103AA0092AA
:1010A00004A90DF10E0202F079F900F0F1F90BD16B
:1010B0009DF80E009DF80D108BF801008BF80010C4
:1010C0009DF80C0088F80000002505E0012202A927
:1010D000032002F073FF6D1C9DF80900052190FBB1
:1010E000F1F1EAB28A42F1DB401EC71960E707213D
:1010F0008DF808106F1CA05D000900F007008DF846
:101100000100E8B2A15D01F00F018DF8001000F0C0
:10111000AAF902F081F900F0BBF910D19DF80000A6
:101120009DF8001088F8080088F810100198C8F899
:101130000400C8F80C009DF8010088F801000122A5
:101140009DF808008DF80A000DF10A01052002F053
:1011500035FFFFF7F1FE2BE7DAF8780AFF210028C8
:101160001CBF0068002801D0804701469DF940005F
:101170008DF80A1000F03F008DF80B0002220DF1EF
:101180000A01062012E703208DF8080004ABA257DD
:101190008DF80420E8B200936F1C225C0492F9B22F
:1011A0001046625C7F1C40EA022000F055F9049072
:1011B00001466420414304910022F8B205927F1C4D
:1011C00021569BF808008DF81810694602F04AF97C
:1011D00000288DF80800BED400F060F90720E5E68D
:1011E000A15D11F00F0108BF01214FF47A70414356
:1011F00001F57A72CBF81C20CBF818102F4600228C
:101200000DF10A010820A2E7A15D0022ADF800203F
:10121000880644BF01228DF80120C80644BF012280
:101220008DF8002001F00F018DF8021069469BF83F
:10123000080002F03DF910F1010F2F468BD09DF808
:10124000010000BF80A188F815009DF80200085C2D
:1012500003F098FAC8F8180002219DF800008DF8F4
:10126000120088F814008DF8101004A99BF80800EB
:1012700001F004FF9BF9011042B28A42B8BF084650
:101280008BF8010000220DF10A0109208EE60321EE
:101290008DF80810E8B2A25D8DF800206F1C00F0F8
:1012A000E2F802F02BF900288DF8080067D400F06E
:1012B000F5F80A204BE70A2001F093FE01285ED1E1
:1012C0000A2100F0F3F804A80021C0E9001106A8E3
:1012D000EAB2C0E900110AA86F1CC0E90011A15DC3
:1012E00004910846A15C40EA012000F0B5F8F9B28B
:1012F00004907F1C625C40EA026004904FF47A71B3
:10130000F8B27F1C205CADF8140010FB01F0001255
:10131000ADF81400DDE90401CDE906010246DFF86D
:10132000240B82180692684601F0C8FBDDE9002311
:10133000CDE90A230AF6682EDEE900010346DDE95D
:1013400006500091024629460CA801F076FBDDE923
:101350000C010346DDE90A500091024629460CA81B
:1013600001F04CFBDDE90C23CDE90623DDE90601A4
:1013700001F088FB01F084FD01208AF8640B17E678
:101380000D2001F02EFE0128F9D10D2100F08EF87C
:101390009AF8B00B042818BF052801D001F06CFDA5
:1013A00006E6E8B26F1CFBB2A15D225CE05C7F1C2C
:1013B00041EA0221FAB241EA0041A05C642200F055
:1013C0000F00514301F059FD8DF80A007F1C00F019
:1013D00069F81120EAE50E2001F003FE012810D182
:1013E0000E2100F063F8E9B2A05D625C40EA0220E1
:1013F0006F1CFBB2DFF8502AE15C526801F03FFD40
:101400007F1CD5E5E9B26F1CFBB2A05D625CE15CBC
:1014100040EA022040EA01406421484301F031FDE6
:101420007F1C012807BF01218DF80A1000228DF8CA
:101430000A2000F037F81320B8E511B0BDE8F08FAE
:10144000CD02002090030020080A0C0D0E1012148B
:1014500015181A1B1D1E2124F9B204907F1C625C12
:1014600040EA02407047215C0191F8B27F1C225C87
:1014700041EA0221F8B201917F1C225C41EA02415B
:10148000019164204143019169469BF8080070472F
:101490008DF8080000F00700072870479DF8080045
:1014A0008DF80A0001220DF10A017047002001F0B9
:1014B00066BD2DE9F84F8CB0824601F0CCFC0128C6
:1014C00008BF0E200ED0DFF8D48498F8FC00012865
:1014D00009D101F0C2FC012803D001F0C0FC0128B1
:1014E00001D10F2058E1D8F83000DFF8606908F525
:1014F000346528B9A868F1884143081AC8F8300053
:1015000008F63407387830B104286CD108F6380072
:1015100003F07CF903E008F6380003F041F90028F5
:101520005FD1387A98F83910A8F830078DF8201074
:10153000D8F83000069030798DF8220001A801F02B
:10154000D7FA08F58272D2E900010346DDE90140CD
:1015500000910246214601A801F06FFADDE9010180
:10156000CDE909010122D8F82C0007900021B8F834
:101570003007ADF82E008DF82C108DF82120307D2D
:1015800020B98DF82C2000228DF8212008F13000A0
:1015900008F14004009008F6B433207808F645328C
:1015A00006A901F0F9FF010008F5376908F5276B76
:1015B0001BD00B2808BFBAF1010F13D1D9F8441082
:1015C00000290DD0DBF8000040F02000CBF800002F
:1015D00008F69828404601F064F9404601F0FBF80F
:1015E000D9E01120D8E00320D6E008F1610A98F98B
:1015F00039209AF900309AF81410207802F032F865
:1016000008F6E821009141B26368227A207801F05F
:101610001FFE08F6FC2100916368227A9AF90710F0
:10162000207801F015FE08F6F4202269016843696C
:10163000D4F814C0307D8A189C4420B9A2698A1855
:10164000E16903EB010C0021CBF87020CBF874C0EA
:101650000191D0B101A802F039FD08B113209BE03F
:10166000019898F867A98DF8000098F93900FFF7FC
:1016700049FC9DF8001051448AB2904203D389B2CC
:10168000B1F5807F01DB082086E068798DF80000E5
:10169000002198F839009DF800208DF809008DF898
:1016A00001108DF8082008F6483398F838008DF8B6
:1016B0000A000DF1010208F178004FF0030A0168F9
:1016C00040680490039102A9B8F83007ADF81400FF
:1016D000207801F01FFE08F669300121017098F8AA
:1016E00039209DF80110427081709DF80000A968B2
:1016F000C9F80800C9F80010C9F8101001F0B1FBD2
:10170000012805D1A86801F0BEFB08B1102043E014
:101710003078012808BF01F0B8FB01F0A5FB0020DC
:1017200001906E7998F839403878DFF8F49AB8B1BA
:10173000042836D101A802F005FA10B14FF0120AC0
:101740002FE0287810B9A878012802DD0198401E02
:1017500001904B4601983246214602F0F9FA02E028
:10176000484602F060FAD0B9387ADBF80010A8F8E1
:10177000300741F002012879CBF8001010B9297820
:10178000491C297008F23270DFF8982AB8F830172F
:10179000936AC9B2984700200DB0BDE8F08F4FF0B2
:1017A000110A5046F8E72DE9F043DFF8B48408F554
:1017B000817008F1280E08F6223500218173CEF8D9
:1017C0000010A97708F64236012108F1B80C012271
:1017D00031700180EA7700229CF80C009CF80D1013
:1017E0008EF8100008F1A1048DB0727088F8FF2007
:1017F0008EF8111008F1A409207888F8610008F12A
:101800006407D9E90001C7E9000108F1AC00D0E99B
:10181000002308F16C00C0E90023E07C387408F56F
:101820001F72217DDCF80000797478610020DCF8FB
:101830000410B0708EF81200B96101208DF810000C
:1018400008F5EC710291039202A99EF8180001F0CC
:1018500065FC0021F17008F6FC213A684A6000201E
:1018600008703A7F787C08744A74002001228874DA
:10187000CA7408F53160142202F040FF012028707C
:1018800002210022D8F8780A69700092019218B1FA
:10189000416800910069019008F5396108F64C3201
:1018A0000591069208F67C3108F6B132079108924C
:1018B00008F1CC0108F1400209910A9208F14401B3
:1018C00008F1D0020B910C92694608F5E36205A875
:1018D00001F0B6FA0DB0BDE8F083F8B50C4600F0A3
:1018E000B5FFDFF84059DFF87863286B06F1400751
:1018F0008047387806F53562214601F0E3FC01287F
:1019000005D1F868696B8847E07C86F8B00BF1BDBB
:10191000F8B5224C94F9701004F1400604F53167D3
:101920007368327A3078009701F092FC04F6223521
:10193000022068700121297004F53562307839463B
:1019400001F0C0FC012807D1DFF8D8184A6B00204D
:101950009047687884F8B00BF1BDC14901F6AF300B
:101960008278C2F3400222B10078002818BF012813
:1019700006D091F8FE00012802D1886A401C8862D6
:1019800001F53460002202700271C270D1F8700A51
:1019900020F00200C1F8700A012070479402002074
:1019A0002DE9F84F5FEA000918BF5FEA010888B027
:1019B00016460FD0D9F8000000281CBFD9F8040043
:1019C000002807D0D9F8080000281CBFD9F80C005F
:1019D000002801D1032036E1304601F045FB08B96B
:1019E000092030E1484601F08EFADFF874B24FF476
:1019F000E6620021584601F0B5FE4FF4A1620021D5
:101A00000BF5E66001F0AEFE0BF624340120A07762
:101A10000BF1400560770BF1FC0A2E7000200BF1F2
:101A200080068AF8000030700F20DFF8E0298DF87A
:101A30000400CAF8102001A900F00AF900B1012041
:101A40008AF8040001A90A208DF804000BF1C407EC
:101A500000F0FEF8387001A9062000F0F7F8787061
:101A600001A910208DF804000BF1A00700F0F0F898
:101A7000F06001A9112000F0E9F8306101A91220FD
:101A800000F0E4F8706101A9132000F0DFF8B06104
:101A900001A9142000F0DAF8F06101A9172000F084
:101AA000D5F8787001A9182000F0D0F87860F860B7
:101AB00001A9192000F0CAF83872387401A91E2053
:101AC00000F0C4F8387501A91F2000F0BFF8787540
:101AD00001A9202000F0BAF8B86101A9212000F086
:101AE000B5F8F86101A90B2000F0B0F8208001A939
:101AF0000C2000F0ABF860800A2101203870716082
:101B00000622327269600BF51F7206212972F06895
:101B1000E8603169296170696861B169A961012171
:101B2000F069E8618BF8601000200BF5EC718DF81E
:101B300014000391049203A9287801F0EFFA0BF541
:101B40002764C4F80880FFF72EFE0120C4F8049033
:101B50008AF801000BF6B139002089F80000012154
:101B600021600022CBF830000090CBF82C204FF001
:101B7000FF31DFF89C380BF6982000F013FE0020B0
:101B800000900022DFF88C384FF0FF310BF52B600E
:101B900000F008FE002000900022DFF87C384FF0B3
:101BA000FF310BF6C82000F0FDFD00200090002260
:101BB000DFF868384FF0FF310BF6283000F0F2FD07
:101BC00006A800F095FFDDE906010BF58272DFF84B
:101BD0005038C2E90001E360DFF84808DFF8481830
:101BE0006061E161DFF84408DFF844182061A16119
:101BF0000BF67C20DFF82C4621688847D8F80810BF
:101C00000BF58C7002F085FB68B9584601F078FF3F
:101C100048B902F0C7F908B1132014E00BF1D00065
:101C200001F0D3FF08B111200DE06069804701F099
:101C300065FD9AF80100A16D8847E06A804701219F
:101C400089F80110002009B0BDE8F08F8DF804007C
:101C5000287801F013BA02490020C1F8700A7047D1
:101C600094020020F8B50C46DFF8C8178B6A01F122
:101C70007402054688B092F9510092F950600293BF
:101C800000278DF800008DF8016001970CB9032042
:101C900046E000208DF81000059301F6243001F590
:101CA0008676038840881278376891F8FE60ADF830
:101CB0001A00ADF818308DF81E2003978DF81160CA
:101CC00002AB91F839008DF81C000DF1010291F87A
:101CD000380091F840108DF81D008DF81F1003A8F2
:101CE000694602F0FFFD9DF90000FFF70BF96070F7
:101CF00001A802F0EBF908B1132011E001981028B7
:101D00000BD261780A46824207D3091A21700199E1
:101D100049198A4203D3002002E0002020700820E5
:101D200009B0F0BDFEB5044600250CB90320FEBD88
:101D30002778DFF8501A282F01F1FC0201F1800307
:101D400001F1400001F1600600F27680DFE807F063
:101D50001517191C1F2123747474747474747425FA
:101D6000272A2E313437403E484A4C4E5052545761
:101D70005D5A6062656967746C0010784BE0107D95
:101D800049E002F009FC4DE002F017FC4AE09078CF
:101D900041E0986C46E0D86C44E050783BE019781C
:101DA00021714DE01D228DF8002014E001F1640046
:101DB00007E001F1A40004E001F16C0001E001F191
:101DC000AC00D0E90023C4E9012339E01B2100E085
:101DD0001A218DF800106946007801F04FF921E0D2
:101DE000307818E0C0681DE000691BE0406919E028
:101DF000806917E0C06915E093F845000BE091F8A1
:101E0000390008E093F8440005E091F8380002E05A
:101E1000406807E0007A207112E0F06902E061603A
:101E20000EE0D86B60600BE001F5867108686060B9
:101E300001F05CFCA06003E0204601F019F80546C3
:101E40002846FEBD803DD5121424002090030020BA
:101E50002DE9FE4F044600250CB90320CCE1DFF844
:101E6000D4B5DBF8701A880748BF0120F6D4227871
:101E7000DFF8B083272A0BF180000BF1FC090BF18E
:101E800060060BF1C40A0BF1380700F2B081DFE8FD
:101E900012F028002C00320036003C0040004400C4
:101EA00048004E0054005A00600066006C0072004A
:101EB0007D008700AE018A009A00A300BB00CC0021
:101EC000C600D700DE00E100E400E700EA00ED0014
:101ED000F900150109012001240128012B012E011F
:101EE0009F012079FEF7A6FF84E1207902280BD01C
:101EF00089F814007FE1606802F045FB02E0606849
:101F000002F04DFB002803D06FE1207989F8020030
:101F100071E16068CAF804006DE16068CAF8080001
:101F200069E160680028EFD00146002028E0606881
:101F30000028E9D00146012022E060680028E3D0B3
:101F4000014602201CE060680028DDD00146032025
:101F500016E060680028D7D001467F2010E0606856
:101F60000028D1D0014680200AE060680028CBD04C
:101F70000146812004E060680028C5D00146822027
:101F800001F037FE002840F02E8134E1207989F8F5
:101F90000100D8F858108847D8F82C0080472AE16B
:101FA0002179017027E100F02EF9012847D16068FE
:101FB0000090002200F02FF9012840D1D4E901015E
:101FC0000BF1640228E000F01EF9012837D1D4E9B2
:101FD00001010BF1A4021FE000F015F901282ED138
:101FE000D4E901010BF16C0299F80030C2E900015B
:101FF000022B08D199F81400002804D0D8F82C003E
:102000008047FFF785FCF6E000F0FDF8012816D1C7
:10201000D4E901010BF1AC02C2E90001EBE0616817
:10202000019101228DF8082003E0616801918DF88B
:10203000085001A9387A01F0E5F8002806D1D4E06B
:1020400020790028FBD01028F9DA3070D3E06068DE
:102050007861D0E06068B861CDE06068F861CAE09E
:1020600060683862C7E060687862C4E000F0C6F873
:10207000062200F0D0F80128E1D19DF800008AF88E
:102080000100B8E094F90400317D8DF800008DF86E
:102090000210052200F0BFF80128D0D19DF8000001
:1020A0007870A8E000F0AAF80A2200F0B4F801283D
:1020B000C5D19DF800008AF800009CE000F09EF871
:1020C000092200F0A8F80128B9D19DF80000387065
:1020D00091E061684160F9608DE0217901723974A5
:1020E00089E06068F06186E06168C16383E06068F0
:1020F00000287AD0044678D0012918BF01257AD16A
:10210000242101F036FB616A884204D1282221464D
:10211000584601F00FFB142104F1280001F029FBBF
:10212000E16B884206D1182204F128010BF1280046
:1021300001F000FBD42104F1400001F01AFBD4F8B7
:102140001411884213D1D82204F140010BF1400050
:1021500001F0F0FA0BF531609BF8451BF268017055
:1021600042600122717D017482740221C17404F500
:102170008C76BC21304601F0FCFAD4F8D4118842A8
:1021800005D1C02231460BF58C7001F0D3FA04F56D
:10219000EC76A021304601F0ECFAD4F878128842AF
:1021A00005D1A42231460BF5EC7001F0C3FA04F519
:1021B000E3661421304601F0DCFAD4F82C1788428B
:1021C00019D1182231460BF5E36001F0B3FA12E0A1
:1021D000A079012809DC60680BF5867108606068E9
:1021E00001F0AAFC38B1112006E0032503E02046E7
:1021F00000F040FE05462846BDE8FE8F94F9040035
:102200008DF80000704794F90800717D8DF800008A
:102210008DF801100722387A694600F0A5BF00004A
:10222000CC0A0020703E01082DE9F04186B0002163
:1022300004460225ADF800100CB90320C1E0FEF7FA
:102240009BF801283CD000F003FF012838D000F0B3
:10225000FBFEDFF8E08128B91422002108F67C306B
:1022600001F080FA98F8B11B012088F87D0B41F04D
:10227000040188F8B11B012120788DF804000022A8
:102280008DF805108DF8072008F6443620780128CF
:1022900008F1380710D0042851D0052857D0062857
:1022A00071D00A2878D00C2800F0A3800D2877D0B0
:1022B0000E2800F0958076E098F8701A880601D50F
:1022C00001207EE0FFF76FFA94F90410387A0022BB
:1022D00001F03AF9787007208DF805000020FEF72C
:1022E000A9FD08F63400002108F23272FF230170C4
:1022F00042600372417202F060F90146082208F65A
:102300003E0001F017FA02F047F90146082208F6EC
:10231000460001F00FFA0020FFF7CBF8054630B970
:10232000D8F8B40B206101A800F001FE48E094F950
:102330000410387A012201F007F9787033E00025A3
:102340006946022001F03AFE002850D1E8E7A18852
:1023500070787A783B788DF808008DF80920ADF810
:1023600014108DF80A3002A9386C7A6C039004922C
:10237000387A01F051F9D8F8700A40F00200C8F834
:10238000700A0025CCE7DFF80034A28894F90C101D
:10239000A068DE6BB047EEE7002569460D20D1E767
:1023A00098F8FC0080B1D8F8B40B206100F04CFE26
:1023B00030B998F8B11B307001F0FB0188F8B11BFF
:1023C000284606B0BDE8F081277907F0070000F045
:1023D0004AFD8DF800700025012269461020B1E702
:1023E0006946122001F0EAFD0025002898D0132547
:1023F000D9E78DF8071000F027FD28B900F021FD7E
:10240000002000F023FDBCE70125CCE7000300011C
:102410003D0D0008810D0008AB0D0008E70D000818
:10242000390100088D01000821020008E9010008B7
:1024300041020008940200202DE9F34F8DB00546BB
:10244000022600240020002D8DF8000082468346DD
:1024500000F08480FDF790FF01287CD0DFF8249302
:102460001422002109F6683001F07CF909F6683180
:1024700001204870012209F624300027827729784C
:1024800021B1012908D0032919D023E009F624310C
:1024900093464A77402708E0E87B082809F624316C
:1024A000A8BF082093464877802728798DF8000038
:1024B000AC68A889ADF8020095F90EA00AE009F60B
:1024C000243193464A776C682889ADF80200E027EA
:1024D00095F90AA099F874108DF82E1009F13808B2
:1024E0008DF82C600BA998F8080000F0C7FD41B2E8
:1024F0005145A8BF8246BBF1000F28D009F1FC0668
:10250000DFF888B2B07888B99BF8001098F8080016
:102510008DF80E108DF80CA0052203A900F024FE02
:1025200001281BD19DF80C0088F8010098F90110D2
:1025300098F900208DF808108DF80120D9F828109E
:102540000591307D60B90726002089F8440BD9F841
:10255000B40B286130460FB0BDE8F08F0320FAE7D6
:10256000F07810B90021C9F8301005ABB078C1017E
:102570003078012898F802000CBF41F0100A01F0F1
:10258000EF0A012809F5867008BF4AF0200A0168A1
:10259000D9F82800069108904FEA0A61C90F8DF812
:1025A0001D1001227A4801884088ADF826008DF878
:1025B0001C20ADF824100AF0BF0A98F8010098F822
:1025C00000109BF800208DF828008DF829108DF858
:1025D0002A20424698F808008DF82B0009F13901AD
:1025E00006A802F07FF94AEA8016BDF802A0002092
:1025F000A9F8300789F8440B0490019004B9824689
:102600005246214609F6680001F094F809F5E660A3
:1026100089F867A9877078090228DFF878A132D095
:1026200004282DD0072840F08A80002C1CBF99F880
:102630006729002A09D0214609F2337001F07AF89F
:1026400099F86709401CA9F830079DF83800FEF793
:1026500030FF0028064674D09DF808009DF8011050
:1026600088F8010088F80010002E74D199F8B11B89
:1026700028788AF8000041F0010189F8B11B66E76B
:10268000012089F8440B09F63404042009F2327160
:102690002070616067729DF80000DBF85810E160FF
:1026A00009F65807FF2222723870267409F668016D
:1026B00099F867093872796004A801F043FA08B103
:1026C0001226C9E70021AAF8041004980499608230
:1026D000CAF80C1001A801F0F9FC40BB01980028D1
:1026E000B3D098F90100FEF70DFC99F8671909F6C7
:1026F000B83BB9B1019910290ED209F6480201A9D7
:102700000F2001F0ECFC90B9019806F0F00600F003
:102710000F000643267498E75A4601A901F0DFFC32
:1027200028B992E75A4601A901F0D9FC08B113264D
:1027300092E701993870C7F804B0397285E702262C
:102740008AE7059988F80200C9F8281001F09DFC75
:10275000002889D01326F7E638B50A4D044695F8C7
:1027600040008DF800400F22694600F0FDFC012872
:1027700008BF85F8004131BD024C04F6982000F0F6
:1027800065B8000094020020703E01080803002094
:10279000B80D0020FC0D00209649974A00200860E3
:1027A00013681847F8B5040015461E4611D03000CE
:1027B0000FD0069F00202060084600F044F86060BB
:1027C000E66000202761E57220726072A07260618D
:1027D000F2BD0120F2BD2DE9F0410446002574B39D
:1027E00000F0CAF8002804BF607A002827D1EFF370
:1027F000108872B6804F6668386A8047B04238BF2A
:1028000030462060012060722572A572794E3068D2
:1028100018B938698047204609E0B86980472168BF
:1028200040182060326813689842204602D200F0B7
:10283000D7F801E000F0C1F888F3108800E0012526
:102840002846BDE8F0816C494A6A1047F8B5002473
:1028500020B3EFF3108572B6664E32680127134637
:1028600011468772BAB1824244720BD15069147218
:1028700018B1306000F08BF80DE05F48C168884700
:10288000346008E0814204D00B4649690029F9D13F
:1028900001E04869586185F3108800E00124204672
:1028A000F2BD38B50446084600250CB901250DE0F7
:1028B000FFF7C9FF6060204600F05EF830B12046A7
:1028C000FFF7C4FF2046FFF786FF0546284632BDC6
:1028D000F8B5EFF3108572B6474E464F70698047E2
:1028E000316904468847041B386860B301688C422C
:1028F00034BF091B0021016040690028F6D1396806
:10290000086828B1B069804739680A68824214D2E1
:102910003C68606938600021217261722069E16859
:102920008847E07A012801BFA07A00282046FFF7F7
:1029300052FF38680028E2D105E021B1087A10B9C9
:10294000084600F024F885F31088F1BD10B52A4C34
:10295000E0698047A16ABDE81040084770B5264D80
:102960000446E86980470646696A20468847AA6A9D
:10297000301ABDE8704010471E49096800E04969F7
:1029800019B18142FBD10120704700207047F8B592
:10299000194D0446286A8047012121720646AF6915
:1029A000B84721683018814202D2B84736182660ED
:1029B0002068A968BDE8F440084710B50D490A68C9
:1029C000536901E01A465B69516931B11C680168BD
:1029D0008C42F7D35061436110BD5061416110BD1D
:1029E000044A116809B100230B7241611060CEE7FF
:1029F00000000000F0240020A44201080EB41CB422
:102A00000FF2A411039CD1E90023CDE9002305991D
:102A1000BDF810200C19BDF8181000948A1813B2D4
:102A2000B3F57A7FADF8042006DB009B5B1CA2F5B2
:102A30007A720093ADF804201CE00EB41CB40FF2BF
:102A40007011039CD1E90023CDE900230599BDF85D
:102A50001820641ABDF8101000948A1A11B20029C7
:102A6000ADF8042006D5009B5B1E02F57A72009338
:102A7000ADF80420DDE90023C0E9002313BC03B056
:102A80007047000078B504464BA0464ED0E90023BD
:102A900085B00D46CDE90123316902A8884700F0D1
:102AA00050F803A8FFF7C9FF039831688847BDF9BC
:102AB0001000B168884706B070BD0000F0B504464C
:102AC0003FA0384D2969D0E9002385B004A8CDE99D
:102AD000032388470390E8688047ADF808006868DA
:102AE00080470190DDE90301DDE9016751E0000065
:102AF0001CB5044634A02B49D0E90023CDE90023BE
:102B000001A80A6990470090DDE90001C4E90001CD
:102B100013BD7FB5234E0446F0680D468047ADF8DF
:102B200008007068804700F00CF801A8FFF785FFE7
:102B30000198BDF908104FF47A7202FB001004B03E
:102B400070BD01902A46DDE901010091034621464E
:102B50007047F0B5044685B04FF47A70B1FBF0F0E1
:102B6000039002464FF47A7000FB1211ADF810107A
:102B70000822002101A801F019FF0A4DE8688047EA
:102B8000ADF80800686880470190DDE90101DDE9E2
:102B900003670091034631463A462046FFF72EFF71
:102BA00005B0F0BDF0440108000000000000000086
:102BB0000000000000000000000000000000000015
:102BC0000000000000000000000000000000000005
:102BD00010B5DFF8644218220021204601F0FBFE08
:102BE0004FF48062002104F1180001F0F4FEDFF8D8
:102BF0004C120FF249100A68BDE810401047F0B5BA
:102C000085B000F053F838BF6FF0040048D3E8688F
:102C10000840884218BF6FF0050041D16B68002B57
:102C200018BF002A01D000F03DF80AAE3346224614
:102C30004FF4007105F5836001F0D4FE074600F003
:102C4000E9F8BDF80200C7196946B8B200F0B6F855
:102C500010F1010F20D0002009E001A982B2401C30
:102C60008B5C3B76BDF80010491CADF80010BDF838
:102C70000010BDF802206F1881B29142EDD33346A7
:102C800022464FF4007107F1180001F0ABFE00F08E
:102C9000C9F800F019F803E000F0C4F86FF0020082
:102CA00005B0F0BD0DF1020101A818471C46002334
:102CB000ADF80230604D2B7A834270475E49486020
:102CC00070475D490872704770B50026EFF31084B5
:102CD00072B6594DE88A58BB00F09CF8698A288A78
:102CE000884223D0AA78012A09D12B882E80181A6D
:102CF000022286B20EB900222A82AA70A8822A8AEB
:102D0000A87828B98A4234BF891AC2F58061A9829D
:102D1000A81800F1180684F3108801F0B8FF474A9C
:102D2000A98AD36830469847064603E000F07AF84F
:102D300084F31088304670BD0000000070B5EFF3DA
:102D4000108172B63C4A9078022802D10023937019
:102D500004E0138A908AC318C3F309031382108A0C
:102D6000538A984223D0D48A012C20D19478012C04
:102D70000AD1158800261680281A022486B20EB9B8
:102D80000024148294709082148A907828B99C420E
:102D900034BF1B1BC4F5806393821019183081F374
:102DA0001088918A254AD368BDE87040184781F39E
:102DB000108801F06EFFBDE8704033E0F0B54FF0D1
:102DC000FF32EFF3108372B61B4C258A668AAE423F
:102DD00001D0B5420ED2C6F58066B7B2B8420AD36A
:102DE000A84213D2668A26800125A5700025268A6E
:102DF000658200E0AE1BB6B2B04207D2628A0A809A
:102E00000022618A4018C0F30900608283F31088B1
:102E10001046F0BDEFF3108072B60749CA8A521C03
:102E2000CA8206E0EFF3108072B60349CA8A531EC5
:102E3000CB8280F310887047CC0E00203445010807
:102E40007047704770477047002070477047704761
:102E50007047002070470020704700207047002016
:102E600070470020704770477047704702207047D6
:102E7000022070470220704770470020704770475B
:102E8000704700207047002070477047704730B48B
:102E9000002513E050F8042BD30744BFA9F1010328
:102EA0009A18091F042942F8045BFAD213468C07CA
:102EB00044BF15809B1CC90748BF1D7050F8041BF8
:102EC0000029E7D130BC7047664901F11C029042ED
:102ED00002D101F10C007047001D704770B5054626
:102EE0000846604991F820405CB1002602E0FFF7F7
:102EF000EBFF761CF1B2A14203D20178A942F6D1D0
:102F000070BD002070BD10B5564C2060002084F8C4
:102F1000200004F10C01616004F10C00A060142297
:102F2000FF2100F01FFC012184F8211010BD38B5ED
:102F30004C4C94F82020052A01DB002032BDA1680A
:102F400003780B70002345784D70521CC078C87010
:102F50008B7084F820200846FFF7B6FFA0600120A0
:102F600032BD10B53F4C94F8200038B1401E84F8B3
:102F700020006068FFF7A8FF6060012010BD10B559
:102F80000446384B084693F8201039B19A685968BE
:102F9000FFF7A4FF10B101214470817010BD80B50E
:102FA000304B93F8201031B19A685968FFF796FFBB
:102FB00008B1407802BD012002BD38B5294D95F811
:102FC00020100446686885F8214049B1C1784470F2
:102FD00009B901228270FFF777FFA9688842F5D10D
:102FE00031BD80B51F498A684968FFF777FF00B196
:102FF000012002BD2DE9FC411A4D95F820800646BE
:1030000000271CE001788DF8001042788DF801202F
:10301000C0788DF803000BE0686801783170427861
:1030200072708478012CEDD129688A683046904707
:10303000FFF797FF14B96846FFF779FF7F1CF8B2D6
:103040004045E9DBBDE8F381064890F82000704771
:10305000044890F82010052901DB0120704700206A
:103060007047000078230020052884BFC01F022875
:1030700001D801207047002070470000C0B2092825
:1030800021D8DFE800F005080B0E111420171A1DD7
:10309000084601F049BE084602F0B2BB084603F0FC
:1030A0001BB9084603F030BD084604F071BA084663
:1030B00004F0DEBF084605F02DBD084606F094BAC0
:1030C000084606F0D9BF0FF2306000687047000074
:1030D000092809D8DFE800F005090C0F12150818B7
:1030E0001B1E084601F0DBBE7047084602F04CBCD0
:1030F000084603F091B9084603F0A3BD084604F062
:10310000E0BA084605F04DB8084605F099BD0846F6
:1031100006F007BB084607F04BB80000092821D885
:10312000DFE800F005080B0E111420171A1D0846E1
:1031300001F0CDBE084602F03FBC084603F084B95A
:10314000084603F096BD084604F0D3BA084605F0D9
:1031500040B8084605F08CBD084606F0FABA0846A5
:1031600007F03EB8704700000B460928114621D8E9
:10317000DFE800F005080B0E111420171A1D184681
:1031800001F0ECBE184602F094BC184603F0A4B956
:10319000184603F0C0BD184604F0FDBA184605F005
:1031A0006AB8184605F0B6BD184606F04CBB18467E
:1031B00007F05DB800207047092821D8DFE800F04B
:1031C00005080B0E111420171A1D084601F0F6BE53
:1031D000084602F09ABC084603F09BB9084603F083
:1031E000C1BD084604F0FEBA084605F06FB80846AF
:1031F00005F0B4BD084606F046BB084607F05EB8C9
:1032000070470000092821D8DFE800F005080B0E00
:10321000111420171A1D084601F00FBF084602F0CE
:10322000A3BC084603F094B9084603F0DABD08468B
:1032300004F017BB084605F088B8084605F0CDBD78
:10324000084606F04FBB084607F077B800207047E5
:1032500010B500F0DBF933D8DFE800F0050A0F14F1
:10326000191E3223282D2046BDE8104001F0FDBE76
:103270002046BDE8104002F0A8BC2046BDE8104042
:1032800003F07EB92046BDE8104003F0C2BD2046E1
:10329000BDE8104004F0FDBA2046BDE8104005F03E
:1032A0006CB82046BDE8104005F0AFBD2046BDE833
:1032B000104006F053BB2046BDE8104007F055B85B
:1032C00010BD00000B460928114621D8DFE800F0A8
:1032D00005080B0E111420171A1D184601F0F4BE34
:1032E000184602F09BBC184603F073B9184603F069
:1032F000BFBD184604F0FCBA184605F06DB8184674
:1033000005F0B2BD184606F052BB184607F05CB88F
:103310000020704710B50C46092811463CD8DFE85C
:1033200000F0050B11171D233B292F352046BDE862
:1033300010401A4601F038BF2046BDE810401A463A
:1033400002F0C1BC2046BDE810401A4603F095B912
:103350002046BDE810401A4603F0FABD2046BDE8FD
:1033600010401A4604F034BB2046BDE810401A460F
:1033700005F0A2B82046BDE810401A4605F0E4BDAD
:103380002046BDE810401A4606F066BB2046BDE860
:1033900010401A4607F088B8002010BD38B50C461A
:1033A00011461A46049B059D092833D8DFE800F032
:1033B000050A0F14191E3223282D0095204601F00E
:1033C00071FF32BD0095204602F0D9FC32BD009558
:1033D000204603F0ACF932BD0095204603F036FEDE
:1033E00032BD0095204604F071FB32BD00952046A9
:1033F00005F0E0F832BD0095204605F023FE32BD11
:103400000095204606F091FB32BD0095204607F05E
:10341000C9F832BD002032BD092821D8DFE800F00C
:1034200005080B0E111420171A1D084601F0E5BF00
:10343000084602F0A7BD084603F02DBA084603F07F
:10344000B1BE084604F0EEBB084605F05EB908467A
:1034500005F0ABBE084606F06BBC084607F04DB958
:1034600000207047092821D8DFE800F005080B0E7E
:10347000111420171A1D084601F0DABF084602F0A1
:10348000A5BD084603F022BA084603F0A6BE0846CA
:1034900004F0E3BB084605F051B9084605F0A4BEA8
:1034A000084606F06FBC084607F042B90020704796
:1034B000092821D8DFE800F005080B0E11142017A9
:1034C0001A1D084601F0D6BF084602F080BD084626
:1034D00003F0FEB9084603F0A2BE084604F0DFBBC5
:1034E000084605F04DB9084605F0A0BE084606F0AE
:1034F0004BBC084607F03EB900207047092821D888
:10350000DFE800F005080B0E111420171A1D0846FD
:1035100001F0B2BF084602F05DBD084603F0DCB919
:10352000084603F07FBE084604F0BCBB084605F021
:103530002AB9084605F07DBE084606F029BC0846B3
:1035400007F01BB9002070470B460928114621D807
:10355000DFE800F005080B0E111420171A1D18469D
:1035600001F0A2BF184602F039BD184603F0B5B904
:10357000184603F06FBE184604F0ACBB184605F0C1
:1035800020B9184605F06DBE184606F002BC184674
:1035900007F00BB90020704710B500F037F833D8AA
:1035A000DFE800F0050A0F14191E3223282D2046EB
:1035B000BDE8104001F07ABF2046BDE8104002F09F
:1035C00022BD2046BDE8104003F088B92046BDE882
:1035D000104003F040BE2046BDE8104004F07BBB25
:1035E0002046BDE8104005F0EDB82046BDE810408B
:1035F00005F038BE2046BDE8104006F0DFBB20468F
:10360000BDE8104007F0D2B8092010BD0C461146A5
:103610001A46029B09287047092821D8DFE800F0E4
:1036200005080B0E111420171A1D084602F01EB8CB
:10363000084602F081BD084603F0B8B9084603F019
:10364000EABE084604F027BC084605F0A0B90846C3
:1036500005F0E8BE084606F049BC084607F083B905
:103660007047000010B50C46092811463CD8DFE829
:1036700000F0050B11171D233B292F352046BDE80F
:1036800010401A4602F02AB82046BDE810401A46FB
:1036900002F077BD2046BDE810401A4603F0C7B9D6
:1036A0002046BDE810401A4603F0EEBE2046BDE8B5
:1036B00010401A4604F026BC2046BDE810401A46C9
:1036C00005F0B0B92046BDE810401A4605F0E2BE4C
:1036D0002046BDE810401A4606F054BC2046BDE81E
:1036E00010401A4607F076B9C8B210BD01487047BD
:1036F00000000000000300010000000029490860EC
:10370000704770B5274A284D146843F2390305FB0A
:10371000043414606FF00046B4FBF6F66FF000421C
:10372000091A02FB1644491C94FBF1F501FB1541F3
:10373000401870BD03E011F8013B00F8013B13464F
:103740005A1E9BB2002BF6D170471044401E03E076
:1037500011F8013B00F8013913465A1E9BB2002BA9
:10376000F6D17047130003D00A46194607F076B920
:10377000704770B503004FF0FF3001D1002070BDDD
:1037800000240A4E09E09A5C5040082200F010F82C
:10379000521E85EA5000F9D1641CA2B28A42F2D3CB
:1037A000C04370BD8C0200206D4EC6412083B8ED31
:1037B00000F001056D1E26EA0505704738B50400C6
:1037C0001CBF2068002801D1022032BD0078607142
:1037D00003222368591CA01DFFF7ACFF2068011DC0
:1037E000032204F10900FFF7A5FF2068C179E16019
:1037F000027A41EA0221E160427A41EA0241E16053
:10380000827A41EA0261E160C07A20742168087B13
:103810002179607411390D2010291FD1206800F121
:103820000D01102204F11200FFF784FF1D20216812
:103830000A5C6262401C83B2401CCD5C42EA0522F5
:1038400083B26262401CCD5C42EA054280B2626291
:10385000085C42EA00626262002032BD0129E6DBB8
:10386000012032BD38B504001CBF2068002801D1FA
:10387000022032BD0078607120684178A1608278B2
:1038800041EA0221A160C27841EA0241A1600279C5
:1038900041EA0261A1604079207320688179E18169
:1038A000C27941EA0221227BE18102F00F02102A53
:1038B00037DA00F1080104F11000FFF73BFF0021A7
:1038C00004F12805207B84F82010297000F00F00F7
:1038D0000830217982B28B1A1B1F012B0DDB236864
:1038E0009A5C84F82020401C091A0A1F80B22A70B2
:1038F0001918606AD2B2FFF71DFF206821790144D0
:10390000081F01786960427841EA02216960827883
:1039100041EA02416960C07841EA006169600020C3
:1039200032BD012032BD31002DE9F047050088B0DD
:1039300008BF0A2057D0002404AFA446A046A146E1
:10394000A24687E800171098DDF844E0EC4600270F
:103950008CE880078DF805008DF80630180C8DF87E
:1039600008001F0A1B0E4FEA1E208DF809308DF843
:103970000B008DF8077001264FEA1E434FEA1E60C8
:103980008DF800608DF80AE08DF80C308DF80D0090
:103990008846174603E01034A8F11008E4B20FFA85
:1039A00088FABAF1000F1DDD8DF80F6004AB3A46BE
:1039B0001021684600F049FD761C88B904ABBAF1C5
:1039C000100FD4BF514610218842E4DA011913F8D0
:1039D00000C06A5C8CEA02026A54401CC0B2EEE786
:1039E0000F2000E0002008B0BDE8F08778B5079907
:1039F00009B90A2072BD069C059A49250D704B71C4
:103A00008A71130A8C72CB710026150C120E4A7241
:103A1000C8734E708E70CE700E710D72220A230C18
:103A2000240E4C738E73CA720B73002072BD30B5B6
:103A30000022DFF80835D4B213F82450854205D0AF
:103A4000521CD4B2022CF6DB0C2030BD03EB8400F8
:103A50000860002030BDF8B584B06C460025002613
:103A60000027AC4684E8E010022802D0032820D0CA
:103A700023E001258DF800508DF804208DF8011009
:103A80008DF807300C0A090C8DF803101B0A160A72
:103A9000120C8DF806208DF8083002468DF8024091
:103AA0008DF805600121684600F006FD30B10F2059
:103AB00004E002248DF80040DEE70B2005B0F0BDE5
:103AC00009B90A207047DFF878241268401E0328DD
:103AD00014D8DFE800F002080C10106908601169C2
:103AE000116200207047506908605169F8E79069D9
:103AF00008609169F4E7D0690860F2E70520704733
:103B000010B508B9092010BDDFF834442060282220
:103B10000021FFF727FE20680121C17081704170EC
:103B2000002202704FF0FF31C2600161416181618A
:103B30000162C161002010BDDFF804140A68106042
:103B40000020704708B90A207047DFF8F4130A68AC
:103B5000D3685B1C0360002070477CB50E460021D3
:103B600015461C4600910CB90A2076BD6946FFF740
:103B7000A7FF010028D1009810F1010F10D080B2EA
:103B8000281A002802DD009D451909E0009802D19D
:103B90002060072076BD000C05EB004505F580355B
:103BA000DFF89C1325600A68907860B900980023BC
:103BB0000021281A63EB0101994204DB01DCB042C9
:103BC00001D3082076BD002076BD30B508B90A20A3
:103BD00030BD0021DFF8682313682C224A4303EB31
:103BE0008104024404F11C05491C1562F2DD002029
:103BF00030BD1FB5044600F0D3FB78B984B9DFF8B7
:103C0000400302689078002100F09CF930B96846C2
:103C100000210022002300F0BFF908B10F2000E0CE
:103C2000002004B010BD1CB5040001D10A2016BD4F
:103C30000020019001A800F09BFCC1480068019998
:103C400081808088E082204600F0AAFD78B904F1E6
:103C500018000090012321681322002000F0D6FBF9
:103C600008B10F2016BD204600F09AFD00B11120CA
:103C700016BD2DE9F84180460D46140014BF002DF5
:103C80000A208DB061D0212104A8AD4E06F01AFFA4
:103C9000316800208DF80C0003A88F88029004A9D9
:103CA00001912946227900923A462368404600F065
:103CB00026FC08B10F2048E02279206804A9FFF70C
:103CC00039FD2046FFF77AFD08B110203DE0A579C7
:103CD000E079217A45EA0025306845EA01458168A6
:103CE0008D420DD0856000219DF80C0000F02AF96E
:103CF00001002AD1042000F03FF9010002D024E0A5
:103D0000032022E0617AA07A41EA0020E17A40EAC9
:103D100001443B46224629460320FFF79CFE010052
:103D200013D13B46224629460220FFF794FE0100AC
:103D30000BD130689DF80C10817000224FF0FF31DC
:103D4000C26081610161416100200EB0BDE8F08177
:103D50002DE9F8411C460322002C87B007464FD0BE
:103D6000DFF8DC81D8F80000C1688F4238BF062038
:103D700043D394F8200000B90222B9420AD20020AD
:103D800001970090A36894F82810606AFFF7CCFDB3
:103D9000010032D1204600F039FD002832D12079CF
:103DA0002568A168061F002D18BF14F12C0027D02C
:103DB000B0B240F201129042A8BF0E201DDA03A853
:103DC000029000910197002300220221B0B2FFF778
:103DD0000DFE04F12C0000900223B2B2294603A884
:103DE00000F014FB08B10F2007E0204600F00EFDA4
:103DF00040B9D8F80000C760002008B0BDE8F081E5
:103E00000A20FAE71120F8E72DE9F04FCBB007467A
:103E1000549C002C0D461E463DD08DF80C200022EF
:103E2000009269469DF80C00FFF74AFEC0B9009861
:103E3000B04202D310F1010F12D12046FFF712FD5C
:103E400080B904A93846FFF7F2FD010073D1049848
:103E50000595A16890F801808D4205D002206AE0A6
:103E6000062068E0102066E0DFF8D4B0207BDBF8A5
:103E70000010400900F00109887808B94FF00009E6
:103E800004F1280041680498069190F802A0207976
:103E90002568071F0DB90A204DE0B8B240F20111A4
:103EA0008842A8BF0E2046DA4FF48872002107A886
:103EB000FFF758FC0599009107A80290019601238D
:103EC0004A465146B8B2FFF791FDBAB229460BA84F
:103ED000FFF730FC069A10375346B9B207A800F036
:103EE0009FFA88B994F8200008B94FF00208012021
:103EF00001960090059B94F82810606A4246FFF7EF
:103F000013FD010004D016E0012814D00F2012E0A8
:103F10009DF80C10DBF80000491E03290AD8DFE8E1
:103F200001F008060402C66104E0866102E0466111
:103F300000E0066100204BB0BDE8F08F4C0200208D
:103F4000D424002038B584B009B10B2012E06946B2
:103F5000002200230024002581E83C00012804BF42
:103F600020208DF8000004220021684600F0A4FA09
:103F700000B10F2005B030BD1FB5042818BF0B20BD
:103F800008D16846002100220023002400F004F834
:103F900000B10F2004B010BD80E81E007F22042174
:103FA00000F08ABA10B56E4CFC2200212046FFF7C3
:103FB000D9FB002200202260606010BDF8B50446E5
:103FC00009B90120F2BD0023654D05F108001E0668
:103FD00000EB16564FF0000C1FFA8CF0305CE0B985
:103FE0000CF1010C1FFA8CF01028F5D3286800B9E9
:103FF0002E60686800B106600020306017466E6071
:104000003471B76092B2701DFFF794FB641F02D049
:10401000E41E022C07D8012006E05B1CD8B20F2852
:10402000D3D10220F2BD002030737F1CD5F8F800F8
:104030003F18C5F8F8700020F2BD10B508B901208E
:1040400010BD474A1168884206D041B10B688342CF
:1040500018BF1946F9D102E00368136000215468C3
:10406000844208BF516009B103680B600021016000
:10407000D2F8F83081685B1A5B1EC2F8F830102263
:104080000021FFF76FFB002010BD10B53448006819
:1040900000E0204630B1017B0468002908BFFFF72B
:1040A000CCFFF6E710BD10B52D48006800280AE0E7
:1040B000FFF7C3FF06E001790468491FF8D0C91E65
:1040C0000229F5D92000F6D1002010BD08B9012041
:1040D00070472349D1F8F8200260002070472DE98D
:1040E000F041804616461E48046800270D46002E03
:1040F00018BF002D0FD101201EE02079F0557F1C44
:10410000A268FFB292B2611DF019FFF713FBA0681D
:104110002468C719FFB25CB1A168A8EB0700491C6D
:104120008842EAD226682046FFF787FF3400F9D19B
:104130002846FFF7CBFF0020BDE8F08108B9012039
:104140007047074909680022027000E0096821B140
:104150000A7B012AFAD1012101700020704700007A
:10416000381A002001460020891E112915D8DFE8E1
:1041700001F009110B110F0D0B0B1114140D141478
:104180000F11131303207047022070470620704759
:1041900001207047052070470420704718B591B082
:1041A000044610A900F0E3F8002869D1200008BFF8
:1041B0000FF2204328D0012C08BF0FF2304323D048
:1041C000032C08BF0FF23C431ED0022C04D10FF287
:1041D0004C43002200211AE0042C08BF0FF2544384
:1041E00012D07F2C08BF0FF264430DD0802C08BF83
:1041F0000FF2704308D0812C08BF0FF2804303D028
:10420000822C06D10FF28C43002200210220FEF7FF
:10421000F6FC1098DFF8AC33017C10980F91002267
:10422000C17B10980E91817B10980D91417B109865
:104230000C91017B10980B91C17A10980A91817AA8
:1042400010980991417A10980891017A1098079175
:10425000C17910980691817910980591417910984B
:104260000491017910980391C17810980291817896
:10427000109801914178009102200021FEF7BFFCC7
:1042800012B010BD70B5002200F081F805D0521CAC
:10429000D3B20A2BF8D3032070BD73E02DE9F841A7
:1042A000CBB006460D001ABF529C002C022090464F
:1042B0001F462BD005A806F008FC69463846FFF7D4
:1042C000E1FF070021D10098411C05A806F00EFC73
:1042D00026B11022314605A806F00DFC42462946BB
:1042E00005A806F008FC05A901A806F061FC01A8D4
:1042F00082789DF80710120442EA016241789DF825
:10430000040042EA01220243226038464CB0BDE874
:10431000F08110B5B0B004466846AB49C02200F049
:10432000EDF90CB902201BE0A8480460C0226946E0
:104330002046FFF7FFF90FF2743300F013F8002066
:10434000FFF72CFF0120FFF729FF0FF2783300F071
:1043500009F80320FFF722FF0220FFF71FFF0020CC
:1043600030B010BD002200210220FEF748BC70B51D
:10437000002200F00CF805D0521CD3B20A2BF8D35F
:10438000032070BD03F110000860002070BD8F4B4A
:104390001C68D5B205EB051563191E7C8642704773
:1043A000F8B50246080084B008BF02200CD00021F6
:1043B000864C236801EB01152B441E7C964205D0E8
:1043C000491C0A29F5D3032005B0F0BD802A15D178
:1043D0006946002200230026002781E8CC006B46B6
:1043E0007F22102100F031F8064620682844102270
:1043F00069461130FFF79EF93046E5E70146102285
:1044000003F11100FFF796F90020DDE71CB57F2BC3
:1044100001DB032016BD049C0094FFF73FFF16BD8F
:104420003EB5144608B902203EBD01AA00920025FF
:104430000A46014601950020FFF730FF010003D135
:1044400001998C4218BF01203EBD2DE9F0410400C6
:104450001D4614BF002D0220BEB00E46174628D0C0
:10446000C90806EB11721209B6EB021018BF05203D
:104470001FD1F022002101A8FFF774F969463846E0
:10448000FFF700FF5FEA000812D1009801AA10218F
:10449000401C06F0BCFC002707E001AAE919E0195E
:1044A00006F028FD1037FFB2103EB0B20028F4D15C
:1044B00040463EB0BDE8F081F8B584B0144608B976
:1044C00002201AE07F2A03D1042918BF032014D147
:1044D0006D46002200230026002785E8CC000A460E
:1044E0006B461021FFF7B1FF010006D16946204657
:1044F000FFF756FF010008BF002005B0F0BDF8B57A
:104500001E001CBF079C002C01D0089D0DB9022085
:10451000F2BD069F222F01DB0520F2BD3A4631464F
:104520002046FFF707F9791E631C012289B2701C2F
:10453000FFF78BFF08B10720F2BDE07AC0092870B1
:1045400014D1E019012310F8042D41788578C07842
:1045500042EA012242EA054242EA0062391F89B278
:104560002046FFF75DFF10B10120F2BD0420F2BD2F
:1045700010B5040001D1022010BD154841698847DB
:104580002060002010BD80B508B9022002BD0146A0
:104590000E48006808220CE00C480068704780B59F
:1045A00008B9022002BD014608480368082203F149
:1045B0000800FFF7BFF8002002BD0448016801F1C0
:1045C00008007047743F0108703C0108EC2400208B
:1045D000703E0108232323232323204170704B6561
:1045E000793A2020202020200000000023232323CC
:1045F0002323204E776B4B65793A20202020202002
:104600000000000023232323232320417070534BF9
:1046100065793A2020202020000000002323232356
:104620002323204E776B534B65793A20202020209E
:1046300000000000232323232323204D43526F6FC8
:10464000744B65793A2020200000000023232323A7
:104650002323204D434B454B65793A2020202020D1
:1046600000000000232323232323204D434B65799F
:104670005F303A2020202020000000002323232345
:104680002323204D43417070534B65795F303A20AE
:1046900000000000232323232323204D434E776B68
:1046A000534B65795F303A20000000002323232319
:1046B0002323204F544141202323232323230D0A66
:1046C00000000000232323232323204142502020E5
:1046D0002323232323230D0A0000000062B38B074A
:1046E00008D0521E11F8013B00F8013B00F0248075
:1046F0008B07F6D1830740F0208000BF103A07D324
:1047000030B4B1E83810103AA0E83810F9D230BC13
:10471000530724BFB1E80810A0E8081044BF51F8BF
:10472000043B40F8043BD20724BF31F8022B20F8A9
:10473000022B44BF0B7803707047121F17D35B0026
:1047400009D151F8043B20F8023B1B0C121F20F842
:10475000023BF6D20BE051F8043B00F8013B1B0A88
:1047600020F8023B1B0C121F00F8013BF3D238BFAC
:10477000121D521E24BF11F8013B00F8013BF8D86E
:104780007047320000280AD0B0FA80F18840D1F199
:104790009D01C905020672F1004241EB10207047ED
:1047A00010B504001CBF2068002801D1012010BDF5
:1047B0002179162901DC022010BD637903700822DB
:1047C0002068A11D401CFEF7C0FF2068082204F1EC
:1047D0000E010930FEF7B9FF2168E08A48742168AC
:1047E000E08A000A88742168A069C8742168A069F9
:1047F000000A08752168A069000C48752168A06945
:10480000000E887517202071002010BD70B50400BF
:104810001CBF2168002901D1012070BD227B04F159
:10482000280502F00F022878083200B1521C101837
:104830002379001D80B2834201D2022070BD6079CD
:1048400008702268A1685170A0682168000A887009
:104850002168A068000CC8702168A068000E08716B
:104860002168207B48712168E08988712168E0898E
:10487000000AC87104F11001227B206802F00F02C7
:104880000830FEF757FF267B287806F00F0608361B
:1048900028B1216894F82000B2B2761C8854B3B2D3
:1048A00020682A78616A1844FEF744FF2978236853
:1048B0006A68701886B2401C9A5583B2696822688B
:1048C000090A00F009F8090C00F006F8090ED154A5
:1048D000401C2071002070BDD154401C69682268C2
:1048E00083B270472DE9F04F044685B0A0780028C8
:1048F000884693461F4655D194F910A094F911901B
:10490000A068386000256179012945D102208DF821
:1049100000006946A27C8DF80220E07CFEF7AEFB29
:1049200046B25645A8BFB246B24508BF3D6033D037
:10493000A089A168E289814228BF0125101881421F
:104940002AD308218DF800106946E07CFEF796FB1B
:104950008146A068E189B0FBF1F201FB1200012859
:104960001AD122218DF800108DF801A06946A07C93
:104970008DF80200E07CFEF781FB824640B2B04237
:1049800002BF00252079012806D102218DF81010E0
:1049900002A9E07CFEF7C2FB88F800A08BF800902B
:1049A000284600E0002005B0BDE8F08F10B50446B1
:1049B00010460A460146204606F050F8204610BD33
:1049C00003E011F8013B00F8013B13465A1E9BB26D
:1049D000002BF6D17047130003D00A46194606F0A3
:1049E0003DB870472DE9F84F002994B0D8BF00209A
:1049F00040F31681491E0290064600910DF10C0904
:104A0000154601930AE071460029A1F1010E04DD6B
:104A10002021401E06F8011BF5D16D1C029A297851
:104A2000B21A19B900988242C0F2F780009B02982E
:104A30009A4280F2F280252918BF06F8011BECD1BA
:104A400015F8011F0023302908BF012330390A2936
:104A50004FF0FF370BD2002705E015F8012B0A2194
:104A600001FB0727303F297830390A29F5D3297807
:104A700058294FF00A0A4BD063291CD0642918BF6B
:104A800069294AD0732921D075294DD0782941D080
:104A900025291CBF252106F8011B009A311A9142D5
:104AA00042DA2978002914BF06F8011B6D1E37E091
:104AB000202006F8010B7F1E002FF9DC0198001D55
:104AC0000190001F006806F8010BA6E70199091D77
:104AD000019151F8048DB8F1000F08BF0FF2501882
:104AE000404606F059FB0446BC42A7EB040A05DA2F
:104AF00020225146304605F0B1FF56440020A04226
:104B0000BEBF18F8011B06F8011B401CF7DB84E749
:104B100043F040034FF0100A06E043F0020303E0C5
:104B2000009A311A9142F2DB990705D5019A121DBC
:104B3000019252F8041D04E00199091D0191091F19
:104B40000968DFF8E480BE46009F301A381A5C0618
:104B500048BFDFF8D880AAF10207232F4FF0FF32B9
:104B600028BF0026D3D2DF074CBF302720279C0761
:104B700048BF00294FF0000C04D54FF02D0C4942DE
:104B8000AEF1010E002421B930228DF80C20012451
:104B90000DE0B1FBFAFB0AFB1B1118F8011009F834
:104BA0000410641C5FEA0B01F3D1002C00D42246F0
:104BB000D907AEEB020E0AD471460029A1F1010E0D
:104BC00005DD2021401E06F8011BF5D125E7BCF1CB
:104BD000000F03D0401E06F801CBF7D07146002924
:104BE000A1F1010E09DD401E06F8017BF6D114E7A4
:104BF0003021401E06F8011BF9D011464A1E8C4296
:104C0000F6DB21464C1E00297FF7FDAE19F8041093
:104C100006F8011B401EF4D1FFE60020307010465C
:104C200015B0BDE8F08F0000C83F0108F03F010853
:104C30003C4E554C4C3E000080B5FDF7ADFDFDF7F8
:104C4000C7FF0FF22100FEF739F80220FEF739F80E
:104C500006F0ACFABDE804400121012006F0B3BA29
:104C600006F0C7BA3EB504460D4601A8FDF726FF7B
:104C7000BDF90800DDF804300BA200901021204699
:104C800000F00BF8204606F087FA288037BD012196
:104C900000E00021022006F08EBA08B400B501AB96
:104CA000FFF7A0FE5DF808FB256473253033643AF6
:104CB0000000000010B5DFF8F4190A6A04469047B6
:104CC00038B1DFF8EC09DFF8EC1904198C428041A7
:104CD000C00F10BDF8B507460FF63C2284B00C4655
:104CE000D55700F0D8F8DFF8C429566A072F0146D7
:104CF0000CD10120039005230093E4B200224FF46D
:104D00007A70029401920023454308E0082300933F
:104D10000122E4B2002003920294019001232A466A
:104D20001846B04705B0F0BDFEB50FF63421DFF8E8
:104D300088390A68009201785A68491E382902F5B4
:104D4000906300F2A680DFE801F01D20A4A4A47700
:104D5000A455A43A3C3E404755575A5D6063666986
:104D6000727477797B7E9D8080828524A4A4A4A41C
:104D7000A4A4A4A4A4A4A4A4A4928896A4A492964F
:104D8000A4989F00C07810B934E0807890B30222D4
:104D900078E00FF6D01191E8E0006C4684E8E0007E
:104DA00090F901108DF80010807800B102208DF884
:104DB000020001930292684606F023FD68E000229B
:104DC00060E0402155E020225CE0817861B990F9F3
:104DD00001000FF66C1205E0817829B990F9010005
:104DE0000FF66412115C44E090F901100FF66012A6
:104DF000535C23E000213CE040F6B83242E04FF43F
:104E00007A7136E04FF4FA623CE041F2883130E0EA
:104E100041F2707236E04FF480412AE04FF47A712B
:104E2000DFF89808FEF76DFC00F5FA6030E000202E
:104E30002EE0DFF88C2825E002211AE0009328E01C
:104E400002F28C4115E010221CE0012111E04FF02C
:104E5000834217E0DFF86C180BE011228DF8002078
:104E6000022100228DF801108DF8022011E0DFF8F8
:104E7000581800910DE0032204E090F901000FF6AC
:104E800098010A5C009204E090F9010000F003F838
:104E900000900098FEBD0FF6880106F0D2BCF8B570
:104EA00000F10C01DFF810482568D1E90067009790
:104EB000334642788168666800780C246043341871
:104EC0001820667A4643A81906F04DFAF1BDF8B5E8
:104ED00086B0044668460FF62801DFF8DC57182232
:104EE000FFF70CFC6968227A01F590601AB1022A7A
:104EF0002ED024D330E0206800281CBF6168002930
:104F00002AD06960286018226946FEF713FC0FF664
:104F1000600168680FF6640691E81C0080E81C00D8
:104F200096E8805000F10C05032185E88050A0F838
:104F30008C14012200F28C4100F5906005E0002203
:104F40004A600A6101F28C41012206F0FDF903E09A
:104F5000028881890A43028007B0F0BD80B503460C
:104F600051B105290CD0062913D0072913D00929DE
:104F700018BF0A2918D01FE01868BDE8024099E65A
:104F8000997893F9000000291ABF0722022107220D
:104F90000DE0052209E0597893F9000000291ABFB5
:104FA00007220221072202E007220021585606F0BC
:104FB0008DF910B1012002BD002002BD70B586B090
:104FC000044650208DF80C002079102802BF21687B
:104FD000C87B00282FD100250226206828440178AC
:104FE00001910A46417842EA0122019264218378C4
:104FF00042EA03424A4301920022029206E0072855
:10500000EBDB002001908DF80C000290019838B184
:1050100001A904918DF8146004A800F0B9FA04E025
:105020008DF80060684600F009FB761CF0B2ED1CBC
:105030000F28EDB2E3DD06B070BD10B5DFF87816CD
:1050400004794B6814B1012C08D00CE001680122EE
:1050500003F5906006F078F9012010BD0168012287
:1050600003F28C40F6E7002010BDFEB51E4607286F
:10507000A8BF07200C46707015460FF2A46739468A
:1050800006F0DFFBB07096F90100072803D132204B
:1050900006F0D5FA06E057F820100FF27C62105C9B
:1050A00006F0C5FA0746DFF80406C16D884706F129
:1050B000080306F10C020093019203462A4621469A
:1050C000384606F0C1FAF7BD2DE9F0470446DFF88F
:1050D000DC7578688AB094F90160D4F80480894658
:1050E000804708B100205CE0E07C58B92178DFF807
:1050F000C8250C204143506850F80180001D4058DD
:1051000000B180460FF2106010F906A0F968404621
:105110008847A068D7F818C0A17C072E18D10025B1
:105120000991089507950695012105910495039528
:1051300080B202904FF47A71DFF890350093052029
:1051400011FB0AFA0190002352464CF2503110E054
:105150000125099180B208950022079206920592D6
:105160000290049208200392019000920123A178FA
:1051700052461846E047617C7A6D012907BF0FF25D
:10518000C850815D0FF2B851895D0D31C9B2284612
:105190009047E07C3246414606F074FB89F8006097
:1051A00001200AB0BDE8F0872DE9F04F8BB08A46A8
:1051B00004460FF2645094F9011046562378DFF844
:1051C000F874DFF8E89478680C214B43C1189346D3
:1051D00091F809C03A68182010FB0CFC02EB0C0097
:1051E00000F076FA804694F90100FFF754FE0A9029
:1051F000A2686168404606F04DFA8DF824000C2044
:105200002278796842438858D9F80C10884794F975
:105210000100D9F81CC0072814D14FF47A6000258A
:1052200008900795069505950120049003950522A1
:1052300002924FF47A70019510FB06F6009646F242
:10524000A8120EE04FF47A62002001250892079020
:10525000069005900495082103900291019500960F
:1052600000220A9B9DF924102846E04723787A689B
:1052700094F901100C204343D05806F023FBA18978
:1052800094F90100FFF726FDCBF800002846A1891C
:10529000D9F85420C9B290478AF8008001200BB099
:1052A000BDE8F08F2DE9F04F8DB004468946924657
:1052B0009B46062101A805F005FC4FF000080726D3
:1052C000ADF80080DFF8F05301E0C0B90626207A7F
:1052D000804531DA606801A9404406F04AF958B3C4
:1052E00040445FFA80F89DF80710BDF80800ADF85B
:1052F000000000294FF0070EE7D0881FE6D16B6849
:10530000002601270C20B7407043062907D1185802
:1053100068B1BDF800000743ADF8007007E0BDF8C4
:1053200000203A4203D0185808B90EF0FE0E761C41
:10533000102EE6DB7646CAE702208DF80C0003A8A3
:10534000617A8DF80E10FFF7EFFC8DF818601023CE
:10535000A17A8DF819109DF805108DF81A109DF896
:1053600006108DF81B109DF804108DF81C10E17AC2
:105370008DF81D10217B8DF81E1094F90D208DF8ED
:105380001F208DF820300722CDF824D08DF828007A
:105390008DF8292001AB69680B918DF83020002130
:1053A0008DF831100DF105012268059205A80DF167
:1053B000060206F0FFF80446072C0BD168680C22A1
:1053C000002100F59060FEF7CDF96968BDF8000096
:1053D000A1F8800416989DF8051089F800109DF832
:1053E00006208AF800209DF804108BF8001080F841
:1053F000008020460DB0BDE8F08F38B50446072583
:105400006068FFF757FC00B90625002107226056A7
:1054100005F05CFF08B905F0FD0594F901000722CD
:10542000002105F053FF08B905F0FB05284632BD01
:105430001FB502681168032439B901798DF800108D
:10544000684600F0FBF890B910E0019200798DF801
:10545000080001A800F09CF848B1042802D00528F3
:1054600002D003E0022402E0012400E000242046F0
:1054700004B010BD0020704738B5054603246868A5
:10548000FFF718FC00B902248B4A297852680C20D7
:105490004143505808B904F0FD04032C02D1686858
:1054A000121D5050204632BD022070472DE9F841B0
:1054B0000646144698460022002395B011A80F46D0
:1054C00000218C4680E80E10ADF8081003217A4DBB
:1054D000ADF80A1001226B68002103F5906005F019
:1054E00017FF08B900F04CF806F10C03707A8DF83C
:1054F0000C00317A8DF80D106968059101F5906204
:105500000492102229680691ADF81C200DF10A01C1
:10551000089132680992012270680A90B17A8DF878
:105520002C108DF82D20D3E90001CDE90C01307D40
:105530008DF83800F18A96F90800FFF7CBFB03A934
:105540000DF109020F9010910092019402AB11AA83
:10555000414609A806F011F9040009D19DF8081088
:10556000491E0020FEF7CDF811A9085C387003E051
:105570000C2801D100F004F8204616B0BDE8F081F7
:105580006868B0F8801441F00301A0F880147047F7
:10559000F8B50646002735790024012D28DD102DA9
:1055A00001DB0320F2BD00F043F843F3030005F0F4
:1055B0008DFE00B9012700F03BF843F3031005F01E
:1055C00085FE00B90127306890F9081041F30310F7
:1055D000316891F9082042F303018842306800687D
:1055E000B8BF0127FFF766FB00B90124274201D0AD
:1055F0000620F2BD0FB10520F2BD0CB10420F2BDB2
:105600002D4F316878680C2414FB05F40C222044DB
:10561000FEF790F878680219002151720121B0F864
:10562000803401FA05F51D43A0F880540020F2BD36
:10563000306890F9083007220021704770B5017872
:105640000A46022A01DA002070BD1B4B5B680C2061
:105650004243981800240025002680E87000BDE829
:105660007040102203F5906005F038BE70B5044616
:105670000C252278104E706831686A430244182065
:10568000537A4343C81800F023F82278716815FB59
:1056900002F54D59A268616805F0FCFFA289034B31
:1056A000DC6B01462846A04770BD0000703E010833
:1056B000403576C9415DC6007C24002018FCFFFF00
:1056C00000EA06379A99094040F7093785450100F5
:1056D00090F9021094F9020006F0AFB800230128F7
:1056E0001DA0805608BF02230A1A9A4204DB062A2C
:1056F000ACBF0521091A00E01946C8B27047000086
:105700006400000000000000000000000000000035
:1057100000000000000000000C0B0A090807073217
:1057200048E8010048E8010048E8010048E80100B5
:1057300048E8010048E8010090D0030000000000A4
:1057400033333373F2F2F2F233333373DEDEDEDE01
:1057500000000B357DF2F2F2000102030405FFFEAA
:105760000000000000070010000000000000000022
:1057700000EA0637000000005000000040F709373B
:10578000000000005000000010B5DFF8181A0A6A87
:1057900004469047C8B1DFF8100ADFF8102A001954
:1057A000904208D2DFF8083ADFF8041AB0FBF3F3AE
:1057B00001FB130008B1002010BDDFF8F809DFF885
:1057C000F81904198C428041C00F10BD38B50D4640
:1057D00084B0044600F0D4F801220392EDB2002117
:1057E0000FF61C22029501910823009301461257DF
:1057F000DFF8B049656A01230120A84705B030BD34
:10580000FEB50FF64C21DFF8B4390A685B68DFF8A3
:10581000B019009203F590640578DFF894296D1EA5
:10582000382D00F2AB80DFE805F01D21A9A9A926DB
:10583000A975A9823E40424E825A5D606366696CDA
:1058400075999B77797C7E8082848728A9A9A9A9EC
:10585000A9A9A9A9A9A9A9A9A9948A989BA9949831
:105860009B9DA400C078002877D002E080780028B3
:1058700050D002227BE0022170E00FF6D81191E8AF
:10588000E0006A4682E8E00090F901108DF800100F
:10589000807800B102208DF80200029301946846DE
:1058A00005F0AFFF69E0402158E020225FE090F969
:1058B00001108078002819BF0FF67412505C0FF6A3
:1058C0005012505C59E090F90110807818B90FF629
:1058D0005012505C51E00FF66812515C3EE040F609
:1058E000B8313BE04FF47A7241E04FF4FA6135E0B1
:1058F00041F288323BE041F270712FE04FF4804278
:1059000035E04FF47A71DFF8BC08FDF7FAFE00F5D8
:10591000FA6032E0002121E000942FE003F28C4194
:105920001CE0482223E0009328E0012116E0002239
:105930001DE0DFF8941811E0DFF8902817E013203D
:10594000032201218DF800008DF801208DF802104E
:1059500014E0007906F041F80FE0082100910DE015
:10596000082204E090F901000FF694010A5C00920D
:1059700004E090F9010000F003F800900098FEBDEB
:10598000DFF84C1805F05DBFF8B500F10C01DFF849
:105990002C482568D1E90067009733464278816832
:1059A000666800780C24604334181820667A4643F1
:1059B000A81905F0D8FCF1BDF8B586B005466846D3
:1059C0000FF62401DFF8F4471822FEF797FE287A35
:1059D00018B1022848D047D35EE0286800281CBFD1
:1059E0006968002958D06160002200F19C010A70AA
:1059F0004A70206018226946FDF79CFE606800220C
:105A00000C21502700F1080C01FB02F3DFF8C4570A
:105A1000DFF8C46700F042F8402AF5DB4022662731
:105A200001FB02F3DFF8B457DFF8B46700F036F893
:105A3000482AF5DB00F28C414FF6FF720A804A805B
:105A40008A80CA804D81FF220A8100F5906006227B
:105A500005F07AFC6068236800F59061062203F186
:105A6000900005F071FC17E0606800F28C4106229E
:105A700000F5906005F068FC0020216863689031B3
:105A800003EB400531F81020B5F88064324021F86E
:105A90001020401C0628F0DB07B0F0BD05FB0265B6
:105AA000C5500CF8037000F109060025521CF5548E
:105AB000704780B5034641B1491F012909D9891EA4
:105AC00010D0891E012916D91DE01868BDE80240D2
:105AD0005AE6997893F9000000291ABF062202219C
